{
  "_format": "hh-sol-artifact-1",
  "contractName": "ERC20Token",
  "sourceName": "contracts/ERC20.sol",
  "abi": [
    {
      "inputs": [
        {
          "internalType": "uint256",
          "name": "initialSupply",
          "type": "uint256"
        },
        {
          "internalType": "string",
          "name": "tokenName",
          "type": "string"
        },
        {
          "internalType": "string",
          "name": "tokenSymbol",
          "type": "string"
        },
        {
          "internalType": "address",
          "name": "to",
          "type": "address"
        }
      ],
      "stateMutability": "nonpayable",
      "type": "constructor"
    },
    {
      "anonymous": false,
      "inputs": [
        {
          "indexed": true,
          "internalType": "address",
          "name": "owner",
          "type": "address"
        },
        {
          "indexed": true,
          "internalType": "address",
          "name": "spender",
          "type": "address"
        },
        {
          "indexed": false,
          "internalType": "uint256",
          "name": "value",
          "type": "uint256"
        }
      ],
      "name": "Approval",
      "type": "event"
    },
    {
      "anonymous": false,
      "inputs": [
        {
          "indexed": true,
          "internalType": "address",
          "name": "from",
          "type": "address"
        },
        {
          "indexed": true,
          "internalType": "address",
          "name": "to",
          "type": "address"
        },
        {
          "indexed": false,
          "internalType": "uint256",
          "name": "value",
          "type": "uint256"
        }
      ],
      "name": "Transfer",
      "type": "event"
    },
    {
      "inputs": [
        {
          "internalType": "address",
          "name": "owner",
          "type": "address"
        },
        {
          "internalType": "address",
          "name": "spender",
          "type": "address"
        }
      ],
      "name": "allowance",
      "outputs": [
        {
          "internalType": "uint256",
          "name": "",
          "type": "uint256"
        }
      ],
      "stateMutability": "view",
      "type": "function"
    },
    {
      "inputs": [
        {
          "internalType": "address",
          "name": "spender",
          "type": "address"
        },
        {
          "internalType": "uint256",
          "name": "amount",
          "type": "uint256"
        }
      ],
      "name": "approve",
      "outputs": [
        {
          "internalType": "bool",
          "name": "",
          "type": "bool"
        }
      ],
      "stateMutability": "nonpayable",
      "type": "function"
    },
    {
      "inputs": [
        {
          "internalType": "address",
          "name": "account",
          "type": "address"
        }
      ],
      "name": "balanceOf",
      "outputs": [
        {
          "internalType": "uint256",
          "name": "",
          "type": "uint256"
        }
      ],
      "stateMutability": "view",
      "type": "function"
    },
    {
      "inputs": [
        {
          "internalType": "uint256",
          "name": "amount",
          "type": "uint256"
        }
      ],
      "name": "burn",
      "outputs": [],
      "stateMutability": "nonpayable",
      "type": "function"
    },
    {
      "inputs": [
        {
          "internalType": "address",
          "name": "account",
          "type": "address"
        },
        {
          "internalType": "uint256",
          "name": "amount",
          "type": "uint256"
        }
      ],
      "name": "burnFrom",
      "outputs": [],
      "stateMutability": "nonpayable",
      "type": "function"
    },
    {
      "inputs": [],
      "name": "decimals",
      "outputs": [
        {
          "internalType": "uint8",
          "name": "",
          "type": "uint8"
        }
      ],
      "stateMutability": "view",
      "type": "function"
    },
    {
      "inputs": [
        {
          "internalType": "address",
          "name": "spender",
          "type": "address"
        },
        {
          "internalType": "uint256",
          "name": "subtractedValue",
          "type": "uint256"
        }
      ],
      "name": "decreaseAllowance",
      "outputs": [
        {
          "internalType": "bool",
          "name": "",
          "type": "bool"
        }
      ],
      "stateMutability": "nonpayable",
      "type": "function"
    },
    {
      "inputs": [
        {
          "internalType": "address",
          "name": "spender",
          "type": "address"
        },
        {
          "internalType": "uint256",
          "name": "addedValue",
          "type": "uint256"
        }
      ],
      "name": "increaseAllowance",
      "outputs": [
        {
          "internalType": "bool",
          "name": "",
          "type": "bool"
        }
      ],
      "stateMutability": "nonpayable",
      "type": "function"
    },
    {
      "inputs": [
        {
          "internalType": "uint256",
          "name": "amount",
          "type": "uint256"
        },
        {
          "internalType": "address",
          "name": "to",
          "type": "address"
        }
      ],
      "name": "mint",
      "outputs": [],
      "stateMutability": "nonpayable",
      "type": "function"
    },
    {
      "inputs": [],
      "name": "name",
      "outputs": [
        {
          "internalType": "string",
          "name": "",
          "type": "string"
        }
      ],
      "stateMutability": "view",
      "type": "function"
    },
    {
      "inputs": [],
      "name": "symbol",
      "outputs": [
        {
          "internalType": "string",
          "name": "",
          "type": "string"
        }
      ],
      "stateMutability": "view",
      "type": "function"
    },
    {
      "inputs": [],
      "name": "totalSupply",
      "outputs": [
        {
          "internalType": "uint256",
          "name": "",
          "type": "uint256"
        }
      ],
      "stateMutability": "view",
      "type": "function"
    },
    {
      "inputs": [
        {
          "internalType": "address",
          "name": "to",
          "type": "address"
        },
        {
          "internalType": "uint256",
          "name": "amount",
          "type": "uint256"
        }
      ],
      "name": "transfer",
      "outputs": [
        {
          "internalType": "bool",
          "name": "",
          "type": "bool"
        }
      ],
      "stateMutability": "nonpayable",
      "type": "function"
    },
    {
      "inputs": [
        {
          "internalType": "address",
          "name": "from",
          "type": "address"
        },
        {
          "internalType": "address",
          "name": "to",
          "type": "address"
        },
        {
          "internalType": "uint256",
          "name": "amount",
          "type": "uint256"
        }
      ],
      "name": "transferFrom",
      "outputs": [
        {
          "internalType": "bool",
          "name": "",
          "type": "bool"
        }
      ],
      "stateMutability": "nonpayable",
      "type": "function"
    }
  ],
  "bytecode": "0x60806040523480156200001157600080fd5b5060405162001eee38038062001eee83398181016040528101906200003791906200035c565b82828160039080519060200190620000519291906200020c565b5080600490805190602001906200006a9291906200020c565b5050506200007f81856200008960201b60201c565b50505050620006cc565b600073ffffffffffffffffffffffffffffffffffffffff168273ffffffffffffffffffffffffffffffffffffffff161415620000fc576040517f08c379a0000000000000000000000000000000000000000000000000000000008152600401620000f3906200044d565b60405180910390fd5b62000110600083836200020260201b60201c565b806002600082825462000124919062000504565b92505081905550806000808473ffffffffffffffffffffffffffffffffffffffff1673ffffffffffffffffffffffffffffffffffffffff16815260200190815260200160002060008282546200017b919062000504565b925050819055508173ffffffffffffffffffffffffffffffffffffffff16600073ffffffffffffffffffffffffffffffffffffffff167fddf252ad1be2c89b69c2b068fc378daa952ba7f163c4a11628f55a4df523b3ef83604051620001e291906200046f565b60405180910390a3620001fe600083836200020760201b60201c565b5050565b505050565b505050565b8280546200021a90620005d5565b90600052602060002090601f0160209004810192826200023e57600085556200028a565b82601f106200025957805160ff19168380011785556200028a565b828001600101855582156200028a579182015b82811115620002895782518255916020019190600101906200026c565b5b5090506200029991906200029d565b5090565b5b80821115620002b85760008160009055506001016200029e565b5090565b6000620002d3620002cd84620004c0565b6200048c565b905082815260208101848484011115620002ec57600080fd5b620002f98482856200059f565b509392505050565b600081519050620003128162000698565b92915050565b600082601f8301126200032a57600080fd5b81516200033c848260208601620002bc565b91505092915050565b6000815190506200035681620006b2565b92915050565b600080600080608085870312156200037357600080fd5b6000620003838782880162000345565b945050602085015167ffffffffffffffff811115620003a157600080fd5b620003af8782880162000318565b935050604085015167ffffffffffffffff811115620003cd57600080fd5b620003db8782880162000318565b9250506060620003ee8782880162000301565b91505092959194509250565b600062000409601f83620004f3565b91507f45524332303a206d696e7420746f20746865207a65726f2061646472657373006000830152602082019050919050565b620004478162000595565b82525050565b600060208201905081810360008301526200046881620003fa565b9050919050565b60006020820190506200048660008301846200043c565b92915050565b6000604051905081810181811067ffffffffffffffff82111715620004b657620004b562000669565b5b8060405250919050565b600067ffffffffffffffff821115620004de57620004dd62000669565b5b601f19601f8301169050602081019050919050565b600082825260208201905092915050565b6000620005118262000595565b91506200051e8362000595565b9250827fffffffffffffffffffffffffffffffffffffffffffffffffffffffffffffffff038211156200055657620005556200060b565b5b828201905092915050565b60006200056e8262000575565b9050919050565b600073ffffffffffffffffffffffffffffffffffffffff82169050919050565b6000819050919050565b60005b83811015620005bf578082015181840152602081019050620005a2565b83811115620005cf576000848401525b50505050565b60006002820490506001821680620005ee57607f821691505b602082108114156200060557620006046200063a565b5b50919050565b7f4e487b7100000000000000000000000000000000000000000000000000000000600052601160045260246000fd5b7f4e487b7100000000000000000000000000000000000000000000000000000000600052602260045260246000fd5b7f4e487b7100000000000000000000000000000000000000000000000000000000600052604160045260246000fd5b620006a38162000561565b8114620006af57600080fd5b50565b620006bd8162000595565b8114620006c957600080fd5b50565b61181280620006dc6000396000f3fe608060405234801561001057600080fd5b50600436106100ea5760003560e01c806370a082311161008c57806395d89b411161006657806395d89b411461025d578063a457c2d71461027b578063a9059cbb146102ab578063dd62ed3e146102db576100ea565b806370a08231146101f557806379cc67901461022557806394bf804d14610241576100ea565b806323b872dd116100c857806323b872dd1461015b578063313ce5671461018b57806339509351146101a957806342966c68146101d9576100ea565b806306fdde03146100ef578063095ea7b31461010d57806318160ddd1461013d575b600080fd5b6100f761030b565b6040516101049190611447565b60405180910390f35b61012760048036038101906101229190610f75565b61039d565b604051610134919061142c565b60405180910390f35b6101456103c0565b60405161015291906115a9565b60405180910390f35b61017560048036038101906101709190610f26565b6103ca565b604051610182919061142c565b60405180910390f35b6101936103f9565b6040516101a091906115c4565b60405180910390f35b6101c360048036038101906101be9190610f75565b610402565b6040516101d0919061142c565b60405180910390f35b6101f360048036038101906101ee9190610fb1565b610439565b005b61020f600480360381019061020a9190610ec1565b61044d565b60405161021c91906115a9565b60405180910390f35b61023f600480360381019061023a9190610f75565b610495565b005b61025b60048036038101906102569190610fda565b6104b5565b005b6102656104c3565b6040516102729190611447565b60405180910390f35b61029560048036038101906102909190610f75565b610555565b6040516102a2919061142c565b60405180910390f35b6102c560048036038101906102c09190610f75565b6105cc565b6040516102d2919061142c565b60405180910390f35b6102f560048036038101906102f09190610eea565b6105ef565b60405161030291906115a9565b60405180910390f35b60606003805461031a9061170d565b80601f01602080910402602001604051908101604052809291908181526020018280546103469061170d565b80156103935780601f1061036857610100808354040283529160200191610393565b820191906000526020600020905b81548152906001019060200180831161037657829003601f168201915b5050505050905090565b6000806103a8610676565b90506103b581858561067e565b600191505092915050565b6000600254905090565b6000806103d5610676565b90506103e2858285610849565b6103ed8585856108d5565b60019150509392505050565b60006012905090565b60008061040d610676565b905061042e81858561041f85896105ef565b61042991906115fb565b61067e565b600191505092915050565b61044a610444610676565b82610b56565b50565b60008060008373ffffffffffffffffffffffffffffffffffffffff1673ffffffffffffffffffffffffffffffffffffffff168152602001908152602001600020549050919050565b6104a7826104a1610676565b83610849565b6104b18282610b56565b5050565b6104bf8183610d2d565b5050565b6060600480546104d29061170d565b80601f01602080910402602001604051908101604052809291908181526020018280546104fe9061170d565b801561054b5780601f106105205761010080835404028352916020019161054b565b820191906000526020600020905b81548152906001019060200180831161052e57829003601f168201915b5050505050905090565b600080610560610676565b9050600061056e82866105ef565b9050838110156105b3576040517f08c379a00000000000000000000000000000000000000000000000000000000081526004016105aa90611569565b60405180910390fd5b6105c0828686840361067e565b60019250505092915050565b6000806105d7610676565b90506105e48185856108d5565b600191505092915050565b6000600160008473ffffffffffffffffffffffffffffffffffffffff1673ffffffffffffffffffffffffffffffffffffffff16815260200190815260200160002060008373ffffffffffffffffffffffffffffffffffffffff1673ffffffffffffffffffffffffffffffffffffffff16815260200190815260200160002054905092915050565b600033905090565b600073ffffffffffffffffffffffffffffffffffffffff168373ffffffffffffffffffffffffffffffffffffffff1614156106ee576040517f08c379a00000000000000000000000000000000000000000000000000000000081526004016106e590611549565b60405180910390fd5b600073ffffffffffffffffffffffffffffffffffffffff168273ffffffffffffffffffffffffffffffffffffffff16141561075e576040517f08c379a0000000000000000000000000000000000000000000000000000000008152600401610755906114a9565b60405180910390fd5b80600160008573ffffffffffffffffffffffffffffffffffffffff1673ffffffffffffffffffffffffffffffffffffffff16815260200190815260200160002060008473ffffffffffffffffffffffffffffffffffffffff1673ffffffffffffffffffffffffffffffffffffffff168152602001908152602001600020819055508173ffffffffffffffffffffffffffffffffffffffff168373ffffffffffffffffffffffffffffffffffffffff167f8c5be1e5ebec7d5bd14f71427d1e84f3dd0314c0f7b2291e5b200ac8c7c3b9258360405161083c91906115a9565b60405180910390a3505050565b600061085584846105ef565b90507fffffffffffffffffffffffffffffffffffffffffffffffffffffffffffffffff81146108cf57818110156108c1576040517f08c379a00000000000000000000000000000000000000000000000000000000081526004016108b8906114c9565b60405180910390fd5b6108ce848484840361067e565b5b50505050565b600073ffffffffffffffffffffffffffffffffffffffff168373ffffffffffffffffffffffffffffffffffffffff161415610945576040517f08c379a000000000000000000000000000000000000000000000000000000000815260040161093c90611529565b60405180910390fd5b600073ffffffffffffffffffffffffffffffffffffffff168273ffffffffffffffffffffffffffffffffffffffff1614156109b5576040517f08c379a00000000000000000000000000000000000000000000000000000000081526004016109ac90611469565b60405180910390fd5b6109c0838383610e8d565b60008060008573ffffffffffffffffffffffffffffffffffffffff1673ffffffffffffffffffffffffffffffffffffffff16815260200190815260200160002054905081811015610a46576040517f08c379a0000000000000000000000000000000000000000000000000000000008152600401610a3d906114e9565b60405180910390fd5b8181036000808673ffffffffffffffffffffffffffffffffffffffff1673ffffffffffffffffffffffffffffffffffffffff16815260200190815260200160002081905550816000808573ffffffffffffffffffffffffffffffffffffffff1673ffffffffffffffffffffffffffffffffffffffff1681526020019081526020016000206000828254610ad991906115fb565b925050819055508273ffffffffffffffffffffffffffffffffffffffff168473ffffffffffffffffffffffffffffffffffffffff167fddf252ad1be2c89b69c2b068fc378daa952ba7f163c4a11628f55a4df523b3ef84604051610b3d91906115a9565b60405180910390a3610b50848484610e92565b50505050565b600073ffffffffffffffffffffffffffffffffffffffff168273ffffffffffffffffffffffffffffffffffffffff161415610bc6576040517f08c379a0000000000000000000000000000000000000000000000000000000008152600401610bbd90611509565b60405180910390fd5b610bd282600083610e8d565b60008060008473ffffffffffffffffffffffffffffffffffffffff1673ffffffffffffffffffffffffffffffffffffffff16815260200190815260200160002054905081811015610c58576040517f08c379a0000000000000000000000000000000000000000000000000000000008152600401610c4f90611489565b60405180910390fd5b8181036000808573ffffffffffffffffffffffffffffffffffffffff1673ffffffffffffffffffffffffffffffffffffffff168152602001908152602001600020819055508160026000828254610caf9190611651565b92505081905550600073ffffffffffffffffffffffffffffffffffffffff168373ffffffffffffffffffffffffffffffffffffffff167fddf252ad1be2c89b69c2b068fc378daa952ba7f163c4a11628f55a4df523b3ef84604051610d1491906115a9565b60405180910390a3610d2883600084610e92565b505050565b600073ffffffffffffffffffffffffffffffffffffffff168273ffffffffffffffffffffffffffffffffffffffff161415610d9d576040517f08c379a0000000000000000000000000000000000000000000000000000000008152600401610d9490611589565b60405180910390fd5b610da960008383610e8d565b8060026000828254610dbb91906115fb565b92505081905550806000808473ffffffffffffffffffffffffffffffffffffffff1673ffffffffffffffffffffffffffffffffffffffff1681526020019081526020016000206000828254610e1091906115fb565b925050819055508173ffffffffffffffffffffffffffffffffffffffff16600073ffffffffffffffffffffffffffffffffffffffff167fddf252ad1be2c89b69c2b068fc378daa952ba7f163c4a11628f55a4df523b3ef83604051610e7591906115a9565b60405180910390a3610e8960008383610e92565b5050565b505050565b505050565b600081359050610ea6816117ae565b92915050565b600081359050610ebb816117c5565b92915050565b600060208284031215610ed357600080fd5b6000610ee184828501610e97565b91505092915050565b60008060408385031215610efd57600080fd5b6000610f0b85828601610e97565b9250506020610f1c85828601610e97565b9150509250929050565b600080600060608486031215610f3b57600080fd5b6000610f4986828701610e97565b9350506020610f5a86828701610e97565b9250506040610f6b86828701610eac565b9150509250925092565b60008060408385031215610f8857600080fd5b6000610f9685828601610e97565b9250506020610fa785828601610eac565b9150509250929050565b600060208284031215610fc357600080fd5b6000610fd184828501610eac565b91505092915050565b60008060408385031215610fed57600080fd5b6000610ffb85828601610eac565b925050602061100c85828601610e97565b9150509250929050565b61101f81611697565b82525050565b6000611030826115df565b61103a81856115ea565b935061104a8185602086016116da565b6110538161179d565b840191505092915050565b600061106b6023836115ea565b91507f45524332303a207472616e7366657220746f20746865207a65726f206164647260008301527f65737300000000000000000000000000000000000000000000000000000000006020830152604082019050919050565b60006110d16022836115ea565b91507f45524332303a206275726e20616d6f756e7420657863656564732062616c616e60008301527f63650000000000000000000000000000000000000000000000000000000000006020830152604082019050919050565b60006111376022836115ea565b91507f45524332303a20617070726f766520746f20746865207a65726f20616464726560008301527f73730000000000000000000000000000000000000000000000000000000000006020830152604082019050919050565b600061119d601d836115ea565b91507f45524332303a20696e73756666696369656e7420616c6c6f77616e63650000006000830152602082019050919050565b60006111dd6026836115ea565b91507f45524332303a207472616e7366657220616d6f756e742065786365656473206260008301527f616c616e636500000000000000000000000000000000000000000000000000006020830152604082019050919050565b60006112436021836115ea565b91507f45524332303a206275726e2066726f6d20746865207a65726f2061646472657360008301527f73000000000000000000000000000000000000000000000000000000000000006020830152604082019050919050565b60006112a96025836115ea565b91507f45524332303a207472616e736665722066726f6d20746865207a65726f20616460008301527f64726573730000000000000000000000000000000000000000000000000000006020830152604082019050919050565b600061130f6024836115ea565b91507f45524332303a20617070726f76652066726f6d20746865207a65726f2061646460008301527f72657373000000000000000000000000000000000000000000000000000000006020830152604082019050919050565b60006113756025836115ea565b91507f45524332303a2064656372656173656420616c6c6f77616e63652062656c6f7760008301527f207a65726f0000000000000000000000000000000000000000000000000000006020830152604082019050919050565b60006113db601f836115ea565b91507f45524332303a206d696e7420746f20746865207a65726f2061646472657373006000830152602082019050919050565b611417816116c3565b82525050565b611426816116cd565b82525050565b60006020820190506114416000830184611016565b92915050565b600060208201905081810360008301526114618184611025565b905092915050565b600060208201905081810360008301526114828161105e565b9050919050565b600060208201905081810360008301526114a2816110c4565b9050919050565b600060208201905081810360008301526114c28161112a565b9050919050565b600060208201905081810360008301526114e281611190565b9050919050565b60006020820190508181036000830152611502816111d0565b9050919050565b6000602082019050818103600083015261152281611236565b9050919050565b600060208201905081810360008301526115428161129c565b9050919050565b6000602082019050818103600083015261156281611302565b9050919050565b6000602082019050818103600083015261158281611368565b9050919050565b600060208201905081810360008301526115a2816113ce565b9050919050565b60006020820190506115be600083018461140e565b92915050565b60006020820190506115d9600083018461141d565b92915050565b600081519050919050565b600082825260208201905092915050565b6000611606826116c3565b9150611611836116c3565b9250827fffffffffffffffffffffffffffffffffffffffffffffffffffffffffffffffff038211156116465761164561173f565b5b828201905092915050565b600061165c826116c3565b9150611667836116c3565b92508282101561167a5761167961173f565b5b828203905092915050565b6000611690826116a3565b9050919050565b60008115159050919050565b600073ffffffffffffffffffffffffffffffffffffffff82169050919050565b6000819050919050565b600060ff82169050919050565b60005b838110156116f85780820151818401526020810190506116dd565b83811115611707576000848401525b50505050565b6000600282049050600182168061172557607f821691505b602082108114156117395761173861176e565b5b50919050565b7f4e487b7100000000000000000000000000000000000000000000000000000000600052601160045260246000fd5b7f4e487b7100000000000000000000000000000000000000000000000000000000600052602260045260246000fd5b6000601f19601f8301169050919050565b6117b781611685565b81146117c257600080fd5b50565b6117ce816116c3565b81146117d957600080fd5b5056fea2646970667358221220dc9970cbda4aae5985823eb546a07f355a101327b1d0caa2e2f21977ba5b434a64736f6c63430008000033",
  "linkReferences": {},
  "deployedLinkReferences": {}
}