{
  "_format": "hh-sol-artifact-1",
  "contractName": "TestAddLiquidity",
  "sourceName": "contracts/Greeter.sol",
  "abi": [
    {
      "inputs": [
        {
          "internalType": "address",
          "name": "_tokenA",
          "type": "address"
        },
        {
          "internalType": "address",
          "name": "_tokenB",
          "type": "address"
        },
        {
          "internalType": "uint256",
          "name": "_amountA",
          "type": "uint256"
        },
        {
          "internalType": "uint256",
          "name": "_amountB",
          "type": "uint256"
        }
      ],
      "name": "addLiquidity",
      "outputs": [
        {
          "internalType": "uint256",
          "name": "",
          "type": "uint256"
        },
        {
          "internalType": "uint256",
          "name": "",
          "type": "uint256"
        },
        {
          "internalType": "uint256",
          "name": "",
          "type": "uint256"
        }
      ],
      "stateMutability": "nonpayable",
      "type": "function"
    },
    {
      "inputs": [
        {
          "internalType": "address",
          "name": "_tokenA",
          "type": "address"
        },
        {
          "internalType": "address",
          "name": "_tokenB",
          "type": "address"
        }
      ],
      "name": "removeLiquidity",
      "outputs": [
        {
          "internalType": "uint256",
          "name": "amountA",
          "type": "uint256"
        },
        {
          "internalType": "uint256",
          "name": "amountB",
          "type": "uint256"
        }
      ],
      "stateMutability": "nonpayable",
      "type": "function"
    },
    {
      "inputs": [
        {
          "internalType": "uint256",
          "name": "_amountIn",
          "type": "uint256"
        },
        {
          "internalType": "uint256",
          "name": "_amountOutMin",
          "type": "uint256"
        },
        {
          "internalType": "address",
          "name": "_tokenA",
          "type": "address"
        },
        {
          "internalType": "address",
          "name": "_tokenB",
          "type": "address"
        },
        {
          "internalType": "address",
          "name": "_to",
          "type": "address"
        }
      ],
      "name": "swap",
      "outputs": [
        {
          "internalType": "uint256[]",
          "name": "",
          "type": "uint256[]"
        }
      ],
      "stateMutability": "nonpayable",
      "type": "function"
    }
  ],
  "bytecode": "0x608060405234801561001057600080fd5b50611413806100206000396000f3fe608060405234801561001057600080fd5b50600436106100415760003560e01c80639cf38f7c14610046578063cf6c62ea14610077578063eab90da6146100a9575b600080fd5b610060600480360381019061005b9190610b7a565b6100d9565b60405161006e9291906110de565b60405180910390f35b610091600480360381019061008c9190610bb6565b6103ed565b6040516100a093929190611161565b60405180910390f35b6100c360048036038101906100be9190610ce8565b610733565b6040516100d0919061109c565b60405180910390f35b600080600073bb6d2561a7543a8f6ad9efa787ce7ab3f2e5f3fc9050600073ffffffffffffffffffffffffffffffffffffffff168173ffffffffffffffffffffffffffffffffffffffff161415610165576040517f08c379a000000000000000000000000000000000000000000000000000000000815260040161015c906110be565b60405180910390fd5b60008173ffffffffffffffffffffffffffffffffffffffff166370a08231336040518263ffffffff1660e01b81526004016101a09190610f34565b60206040518083038186803b1580156101b857600080fd5b505afa1580156101cc573d6000803e3d6000fd5b505050506040513d601f19601f820116820180604052508101906101f09190610c83565b90508173ffffffffffffffffffffffffffffffffffffffff166323b872dd3330846040518463ffffffff1660e01b815260040161022f93929190610f4f565b602060405180830381600087803b15801561024957600080fd5b505af115801561025d573d6000803e3d6000fd5b505050506040513d601f19601f820116820180604052508101906102819190610c5a565b508173ffffffffffffffffffffffffffffffffffffffff1663095ea7b373f164fc0ec4e93095b804a4795bbe1e041497b92a836040518363ffffffff1660e01b81526004016102d1929190611073565b602060405180830381600087803b1580156102eb57600080fd5b505af11580156102ff573d6000803e3d6000fd5b505050506040513d601f19601f820116820180604052508101906103239190610c5a565b5073f164fc0ec4e93095b804a4795bbe1e041497b92a73ffffffffffffffffffffffffffffffffffffffff1663baa2abde87878460018033610e10426103699190611278565b6040518863ffffffff1660e01b815260040161038b9796959493929190610f86565b6040805180830381600087803b1580156103a457600080fd5b505af11580156103b8573d6000803e3d6000fd5b505050506040513d601f19601f820116820180604052508101906103dc9190610cac565b809450819550505050509250929050565b60008060008673ffffffffffffffffffffffffffffffffffffffff166323b872dd3330886040518463ffffffff1660e01b815260040161042f93929190610f4f565b602060405180830381600087803b15801561044957600080fd5b505af115801561045d573d6000803e3d6000fd5b505050506040513d601f19601f820116820180604052508101906104819190610c5a565b508573ffffffffffffffffffffffffffffffffffffffff166323b872dd3330876040518463ffffffff1660e01b81526004016104bf93929190610f4f565b602060405180830381600087803b1580156104d957600080fd5b505af11580156104ed573d6000803e3d6000fd5b505050506040513d601f19601f820116820180604052508101906105119190610c5a565b508673ffffffffffffffffffffffffffffffffffffffff1663095ea7b373f164fc0ec4e93095b804a4795bbe1e041497b92a876040518363ffffffff1660e01b8152600401610561929190611073565b602060405180830381600087803b15801561057b57600080fd5b505af115801561058f573d6000803e3d6000fd5b505050506040513d601f19601f820116820180604052508101906105b39190610c5a565b508573ffffffffffffffffffffffffffffffffffffffff1663095ea7b373f164fc0ec4e93095b804a4795bbe1e041497b92a866040518363ffffffff1660e01b8152600401610603929190611073565b602060405180830381600087803b15801561061d57600080fd5b505af1158015610631573d6000803e3d6000fd5b505050506040513d601f19601f820116820180604052508101906106559190610c5a565b50600080600073f164fc0ec4e93095b804a4795bbe1e041497b92a73ffffffffffffffffffffffffffffffffffffffff1663e8e337008b8b8b8b6000803362015180426106a29190611278565b6040518963ffffffff1660e01b81526004016106c5989796959493929190610ff5565b606060405180830381600087803b1580156106df57600080fd5b505af11580156106f3573d6000803e3d6000fd5b505050506040513d601f19601f820116820180604052508101906107179190610d5f565b9250925092508282829550955095505050509450945094915050565b60608373ffffffffffffffffffffffffffffffffffffffff166323b872dd3330896040518463ffffffff1660e01b815260040161077293929190610f4f565b602060405180830381600087803b15801561078c57600080fd5b505af11580156107a0573d6000803e3d6000fd5b505050506040513d601f19601f820116820180604052508101906107c49190610c5a565b508373ffffffffffffffffffffffffffffffffffffffff1663095ea7b373f164fc0ec4e93095b804a4795bbe1e041497b92a886040518363ffffffff1660e01b8152600401610814929190611073565b602060405180830381600087803b15801561082e57600080fd5b505af1158015610842573d6000803e3d6000fd5b505050506040513d601f19601f820116820180604052508101906108669190610c5a565b506000600267ffffffffffffffff8111156108aa577f4e487b7100000000000000000000000000000000000000000000000000000000600052604160045260246000fd5b6040519080825280602002602001820160405280156108d85781602001602082028036833780820191505090505b5090508481600081518110610916577f4e487b7100000000000000000000000000000000000000000000000000000000600052603260045260246000fd5b602002602001019073ffffffffffffffffffffffffffffffffffffffff16908173ffffffffffffffffffffffffffffffffffffffff1681525050838160018151811061098b577f4e487b7100000000000000000000000000000000000000000000000000000000600052603260045260246000fd5b602002602001019073ffffffffffffffffffffffffffffffffffffffff16908173ffffffffffffffffffffffffffffffffffffffff1681525050600073f164fc0ec4e93095b804a4795bbe1e041497b92a73ffffffffffffffffffffffffffffffffffffffff166338ed1739898985886101f442610a099190611278565b6040518663ffffffff1660e01b8152600401610a29959493929190611107565b600060405180830381600087803b158015610a4357600080fd5b505af1158015610a57573d6000803e3d6000fd5b505050506040513d6000823e3d601f19601f82011682018060405250810190610a809190610c19565b9050809250505095945050505050565b6000610aa3610a9e846111c9565b611198565b90508083825260208201905082856020860282011115610ac257600080fd5b60005b85811015610af25781610ad88882610b65565b845260208401935060208301925050600181019050610ac5565b5050509392505050565b600081359050610b0b81611398565b92915050565b600082601f830112610b2257600080fd5b8151610b32848260208601610a90565b91505092915050565b600081519050610b4a816113af565b92915050565b600081359050610b5f816113c6565b92915050565b600081519050610b74816113c6565b92915050565b60008060408385031215610b8d57600080fd5b6000610b9b85828601610afc565b9250506020610bac85828601610afc565b9150509250929050565b60008060008060808587031215610bcc57600080fd5b6000610bda87828801610afc565b9450506020610beb87828801610afc565b9350506040610bfc87828801610b50565b9250506060610c0d87828801610b50565b91505092959194509250565b600060208284031215610c2b57600080fd5b600082015167ffffffffffffffff811115610c4557600080fd5b610c5184828501610b11565b91505092915050565b600060208284031215610c6c57600080fd5b6000610c7a84828501610b3b565b91505092915050565b600060208284031215610c9557600080fd5b6000610ca384828501610b65565b91505092915050565b60008060408385031215610cbf57600080fd5b6000610ccd85828601610b65565b9250506020610cde85828601610b65565b9150509250929050565b600080600080600060a08688031215610d0057600080fd5b6000610d0e88828901610b50565b9550506020610d1f88828901610b50565b9450506040610d3088828901610afc565b9350506060610d4188828901610afc565b9250506080610d5288828901610afc565b9150509295509295909350565b600080600060608486031215610d7457600080fd5b6000610d8286828701610b65565b9350506020610d9386828701610b65565b9250506040610da486828701610b65565b9150509250925092565b6000610dba8383610dde565b60208301905092915050565b6000610dd28383610f16565b60208301905092915050565b610de7816112ce565b82525050565b610df6816112ce565b82525050565b6000610e0782611215565b610e118185611245565b9350610e1c836111f5565b8060005b83811015610e4d578151610e348882610dae565b9750610e3f8361122b565b925050600181019050610e20565b5085935050505092915050565b6000610e6582611220565b610e6f8185611256565b9350610e7a83611205565b8060005b83811015610eab578151610e928882610dc6565b9750610e9d83611238565b925050600181019050610e7e565b5085935050505092915050565b610ec181611316565b82525050565b610ed081611328565b82525050565b6000610ee3600e83611267565b91507f506f6f6c206e6f742065786973740000000000000000000000000000000000006000830152602082019050919050565b610f1f8161130c565b82525050565b610f2e8161130c565b82525050565b6000602082019050610f496000830184610ded565b92915050565b6000606082019050610f646000830186610ded565b610f716020830185610ded565b610f7e6040830184610f25565b949350505050565b600060e082019050610f9b600083018a610ded565b610fa86020830189610ded565b610fb56040830188610f25565b610fc26060830187610ec7565b610fcf6080830186610ec7565b610fdc60a0830185610ded565b610fe960c0830184610f25565b98975050505050505050565b60006101008201905061100b600083018b610ded565b611018602083018a610ded565b6110256040830189610f25565b6110326060830188610f25565b61103f6080830187610eb8565b61104c60a0830186610eb8565b61105960c0830185610ded565b61106660e0830184610f25565b9998505050505050505050565b60006040820190506110886000830185610ded565b6110956020830184610f25565b9392505050565b600060208201905081810360008301526110b68184610e5a565b905092915050565b600060208201905081810360008301526110d781610ed6565b9050919050565b60006040820190506110f36000830185610f25565b6111006020830184610f25565b9392505050565b600060a08201905061111c6000830188610f25565b6111296020830187610f25565b818103604083015261113b8186610dfc565b905061114a6060830185610ded565b6111576080830184610f25565b9695505050505050565b60006060820190506111766000830186610f25565b6111836020830185610f25565b6111906040830184610f25565b949350505050565b6000604051905081810181811067ffffffffffffffff821117156111bf576111be611369565b5b8060405250919050565b600067ffffffffffffffff8211156111e4576111e3611369565b5b602082029050602081019050919050565b6000819050602082019050919050565b6000819050602082019050919050565b600081519050919050565b600081519050919050565b6000602082019050919050565b6000602082019050919050565b600082825260208201905092915050565b600082825260208201905092915050565b600082825260208201905092915050565b60006112838261130c565b915061128e8361130c565b9250827fffffffffffffffffffffffffffffffffffffffffffffffffffffffffffffffff038211156112c3576112c261133a565b5b828201905092915050565b60006112d9826112ec565b9050919050565b60008115159050919050565b600073ffffffffffffffffffffffffffffffffffffffff82169050919050565b6000819050919050565b60006113218261130c565b9050919050565b60006113338261130c565b9050919050565b7f4e487b7100000000000000000000000000000000000000000000000000000000600052601160045260246000fd5b7f4e487b7100000000000000000000000000000000000000000000000000000000600052604160045260246000fd5b6113a1816112ce565b81146113ac57600080fd5b50565b6113b8816112e0565b81146113c357600080fd5b50565b6113cf8161130c565b81146113da57600080fd5b5056fea264697066735822122011e85f8ed835e897fd6fab8d52ea6e60fc1645f881844049bdda9bb6428bbf2264736f6c63430008000033",
  "linkReferences": {},
  "deployedLinkReferences": {}
}