{
  "_format": "hh-sol-artifact-1",
  "contractName": "UniswapV3Integration",
  "sourceName": "contracts/Greeter.sol",
  "abi": [
    {
      "inputs": [
        {
          "internalType": "contract ISwapRouter",
          "name": "_swapRouter",
          "type": "address"
        }
      ],
      "stateMutability": "nonpayable",
      "type": "constructor"
    },
    {
      "inputs": [],
      "name": "ABC",
      "outputs": [
        {
          "internalType": "address",
          "name": "",
          "type": "address"
        }
      ],
      "stateMutability": "view",
      "type": "function"
    },
    {
      "inputs": [],
      "name": "DAI",
      "outputs": [
        {
          "internalType": "address",
          "name": "",
          "type": "address"
        }
      ],
      "stateMutability": "view",
      "type": "function"
    },
    {
      "inputs": [],
      "name": "MAX_TICK",
      "outputs": [
        {
          "internalType": "uint256",
          "name": "",
          "type": "uint256"
        }
      ],
      "stateMutability": "view",
      "type": "function"
    },
    {
      "inputs": [],
      "name": "MIN_TICK",
      "outputs": [
        {
          "internalType": "uint256",
          "name": "",
          "type": "uint256"
        }
      ],
      "stateMutability": "view",
      "type": "function"
    },
    {
      "inputs": [],
      "name": "TICK_SPACING",
      "outputs": [
        {
          "internalType": "uint256",
          "name": "",
          "type": "uint256"
        }
      ],
      "stateMutability": "view",
      "type": "function"
    },
    {
      "inputs": [],
      "name": "USDC",
      "outputs": [
        {
          "internalType": "address",
          "name": "",
          "type": "address"
        }
      ],
      "stateMutability": "view",
      "type": "function"
    },
    {
      "inputs": [],
      "name": "WETH9",
      "outputs": [
        {
          "internalType": "address",
          "name": "",
          "type": "address"
        }
      ],
      "stateMutability": "view",
      "type": "function"
    },
    {
      "inputs": [],
      "name": "poolFee",
      "outputs": [
        {
          "internalType": "uint24",
          "name": "",
          "type": "uint24"
        }
      ],
      "stateMutability": "view",
      "type": "function"
    },
    {
      "inputs": [
        {
          "internalType": "uint256",
          "name": "amountIn",
          "type": "uint256"
        }
      ],
      "name": "swapExactInputSingle",
      "outputs": [
        {
          "internalType": "uint256",
          "name": "amountOut",
          "type": "uint256"
        }
      ],
      "stateMutability": "nonpayable",
      "type": "function"
    },
    {
      "inputs": [
        {
          "internalType": "uint256",
          "name": "amountOut",
          "type": "uint256"
        },
        {
          "internalType": "uint256",
          "name": "amountInMaximum",
          "type": "uint256"
        }
      ],
      "name": "swapExactOutputMultihop",
      "outputs": [
        {
          "internalType": "uint256",
          "name": "amountIn",
          "type": "uint256"
        }
      ],
      "stateMutability": "nonpayable",
      "type": "function"
    },
    {
      "inputs": [
        {
          "internalType": "uint256",
          "name": "amountOut",
          "type": "uint256"
        },
        {
          "internalType": "uint256",
          "name": "amountInMaximum",
          "type": "uint256"
        }
      ],
      "name": "swapExactOutputSingle",
      "outputs": [
        {
          "internalType": "uint256",
          "name": "amountIn",
          "type": "uint256"
        }
      ],
      "stateMutability": "nonpayable",
      "type": "function"
    },
    {
      "inputs": [],
      "name": "swapRouter",
      "outputs": [
        {
          "internalType": "contract ISwapRouter",
          "name": "",
          "type": "address"
        }
      ],
      "stateMutability": "view",
      "type": "function"
    }
  ],
  "bytecode": "0x60a06040523480156200001157600080fd5b50604051620017aa380380620017aa83398181016040528101906200003791906200008c565b8073ffffffffffffffffffffffffffffffffffffffff1660808173ffffffffffffffffffffffffffffffffffffffff1660601b81525050506200011a565b600081519050620000868162000100565b92915050565b6000602082840312156200009f57600080fd5b6000620000af8482850162000075565b91505092915050565b6000620000c582620000e0565b9050919050565b6000620000d982620000b8565b9050919050565b600073ffffffffffffffffffffffffffffffffffffffff82169050919050565b6200010b81620000cc565b81146200011757600080fd5b50565b60805160601c61163962000171600039600081816102b1015281816103800152818161044d01528181610504015281816105ff015281816106cf0152818161072d0152818161081a01526108e701526116396000f3fe608060405234801561001057600080fd5b50600436106100b45760003560e01c806373bd43ad1161007157806373bd43ad1461017f57806389a30271146101af578063a1634b14146101cd578063c31c9c07146101eb578063c4b69a1814610209578063e0bab4c414610239576100b4565b8063089fe6aa146100b957806334354f93146100d75780633b85cf6a146100f557806346ca626b146101255780634aa4a4fc146101435780636882a88814610161575b600080fd5b6100c1610257565b6040516100ce919061139f565b60405180910390f35b6100df61025d565b6040516100ec919061124f565b60405180910390f35b61010f600480360381019061010a9190610e13565b610275565b60405161011c91906113ba565b60405180910390f35b61012d6104a6565b60405161013a91906113ba565b60405180910390f35b61014b6104ab565b604051610158919061124f565b60405180910390f35b6101696104c3565b60405161017691906113ba565b60405180910390f35b61019960048036038101906101949190610dc1565b6104c8565b6040516101a691906113ba565b60405180910390f35b6101b76106b0565b6040516101c4919061124f565b60405180910390f35b6101d56106c8565b6040516101e291906113ba565b60405180910390f35b6101f36106cd565b60405161020091906112ca565b60405180910390f35b610223600480360381019061021e9190610e13565b6106f1565b60405161023091906113ba565b60405180910390f35b61024161093f565b60405161024e919061124f565b60405180910390f35b610bb881565b736e9c08467b3985f6b0ba324ca20813e208f2fccb81565b600061029773c7ad46e0b8a400bb3c915120d284aafba8fc4735333085610957565b6102d673c7ad46e0b8a400bb3c915120d284aafba8fc47357f000000000000000000000000000000000000000000000000000000000000000084610aaf565b60006040518060a0016040528073c02aaa39b223fe8d0a0e5c4f27ead9083c756cc2610bb873a0b86991c6218b36c1d19d4a2e9eb0ce3606eb48610bb873c7ad46e0b8a400bb3c915120d284aafba8fc473560405160200161033c9594939291906111d9565b60405160208183030381529060405281526020013373ffffffffffffffffffffffffffffffffffffffff1681526020014281526020018581526020018481525090507f000000000000000000000000000000000000000000000000000000000000000073ffffffffffffffffffffffffffffffffffffffff1663f28c0498826040518263ffffffff1660e01b81526004016103d79190611361565b602060405180830381600087803b1580156103f157600080fd5b505af1158015610405573d6000803e3d6000fd5b505050506040513d601f19601f820116820180604052508101906104299190610dea565b91508282101561049f5761047373c7ad46e0b8a400bb3c915120d284aafba8fc47357f00000000000000000000000000000000000000000000000000000000000000006000610aaf565b61049e73c7ad46e0b8a400bb3c915120d284aafba8fc4735303385876104999190611463565b610957565b5b5092915050565b600a81565b73c02aaa39b223fe8d0a0e5c4f27ead9083c756cc281565b600f81565b60006104ea73c7ad46e0b8a400bb3c915120d284aafba8fc4735333085610957565b61052973c7ad46e0b8a400bb3c915120d284aafba8fc47357f000000000000000000000000000000000000000000000000000000000000000084610aaf565b600060405180610100016040528073c7ad46e0b8a400bb3c915120d284aafba8fc473573ffffffffffffffffffffffffffffffffffffffff16815260200173c02aaa39b223fe8d0a0e5c4f27ead9083c756cc273ffffffffffffffffffffffffffffffffffffffff168152602001610bb862ffffff1681526020013373ffffffffffffffffffffffffffffffffffffffff1681526020016103e8426105ce919061140d565b815260200184815260200160008152602001600073ffffffffffffffffffffffffffffffffffffffff1681525090507f000000000000000000000000000000000000000000000000000000000000000073ffffffffffffffffffffffffffffffffffffffff1663414bf389826040518263ffffffff1660e01b81526004016106569190611345565b602060405180830381600087803b15801561067057600080fd5b505af1158015610684573d6000803e3d6000fd5b505050506040513d601f19601f820116820180604052508101906106a89190610dea565b915050919050565b73a0b86991c6218b36c1d19d4a2e9eb0ce3606eb4881565b600581565b7f000000000000000000000000000000000000000000000000000000000000000081565b600061071373c7ad46e0b8a400bb3c915120d284aafba8fc4735333085610957565b61075273c7ad46e0b8a400bb3c915120d284aafba8fc47357f000000000000000000000000000000000000000000000000000000000000000084610aaf565b600060405180610100016040528073c7ad46e0b8a400bb3c915120d284aafba8fc473573ffffffffffffffffffffffffffffffffffffffff16815260200173c02aaa39b223fe8d0a0e5c4f27ead9083c756cc273ffffffffffffffffffffffffffffffffffffffff168152602001610bb862ffffff1681526020013373ffffffffffffffffffffffffffffffffffffffff168152602001428152602001858152602001848152602001600073ffffffffffffffffffffffffffffffffffffffff1681525090507f000000000000000000000000000000000000000000000000000000000000000073ffffffffffffffffffffffffffffffffffffffff1663db3e2198826040518263ffffffff1660e01b81526004016108719190611383565b602060405180830381600087803b15801561088b57600080fd5b505af115801561089f573d6000803e3d6000fd5b505050506040513d601f19601f820116820180604052508101906108c39190610dea565b9150828210156109385761090d73c7ad46e0b8a400bb3c915120d284aafba8fc47357f00000000000000000000000000000000000000000000000000000000000000006000610aaf565b61093773c7ad46e0b8a400bb3c915120d284aafba8fc47353384866109329190611463565b610c04565b5b5092915050565b73c7ad46e0b8a400bb3c915120d284aafba8fc473581565b6000808573ffffffffffffffffffffffffffffffffffffffff166323b872dd60e01b86868660405160240161098e9392919061126a565b604051602081830303815290604052907bffffffffffffffffffffffffffffffffffffffffffffffffffffffff19166020820180517bffffffffffffffffffffffffffffffffffffffffffffffffffffffff83818316178352505050506040516109f89190611238565b6000604051808303816000865af19150503d8060008114610a35576040519150601f19603f3d011682016040523d82523d6000602084013e610a3a565b606091505b5091509150818015610a685750600081511480610a67575080806020019051810190610a669190610d98565b5b5b610aa7576040517f08c379a0000000000000000000000000000000000000000000000000000000008152600401610a9e90611325565b60405180910390fd5b505050505050565b6000808473ffffffffffffffffffffffffffffffffffffffff1663095ea7b360e01b8585604051602401610ae49291906112a1565b604051602081830303815290604052907bffffffffffffffffffffffffffffffffffffffffffffffffffffffff19166020820180517bffffffffffffffffffffffffffffffffffffffffffffffffffffffff8381831617835250505050604051610b4e9190611238565b6000604051808303816000865af19150503d8060008114610b8b576040519150601f19603f3d011682016040523d82523d6000602084013e610b90565b606091505b5091509150818015610bbe5750600081511480610bbd575080806020019051810190610bbc9190610d98565b5b5b610bfd576040517f08c379a0000000000000000000000000000000000000000000000000000000008152600401610bf4906112e5565b60405180910390fd5b5050505050565b6000808473ffffffffffffffffffffffffffffffffffffffff1663a9059cbb60e01b8585604051602401610c399291906112a1565b604051602081830303815290604052907bffffffffffffffffffffffffffffffffffffffffffffffffffffffff19166020820180517bffffffffffffffffffffffffffffffffffffffffffffffffffffffff8381831617835250505050604051610ca39190611238565b6000604051808303816000865af19150503d8060008114610ce0576040519150601f19603f3d011682016040523d82523d6000602084013e610ce5565b606091505b5091509150818015610d135750600081511480610d12575080806020019051810190610d119190610d98565b5b5b610d52576040517f08c379a0000000000000000000000000000000000000000000000000000000008152600401610d4990611305565b60405180910390fd5b5050505050565b600081519050610d68816115d5565b92915050565b600081359050610d7d816115ec565b92915050565b600081519050610d92816115ec565b92915050565b600060208284031215610daa57600080fd5b6000610db884828501610d59565b91505092915050565b600060208284031215610dd357600080fd5b6000610de184828501610d6e565b91505092915050565b600060208284031215610dfc57600080fd5b6000610e0a84828501610d83565b91505092915050565b60008060408385031215610e2657600080fd5b6000610e3485828601610d6e565b9250506020610e4585828601610d6e565b9150509250929050565b610e5881611497565b82525050565b610e6781611497565b82525050565b610e7e610e7982611497565b611545565b82525050565b6000610e8f826113d5565b610e9981856113e0565b9350610ea9818560208601611512565b610eb2816115aa565b840191505092915050565b6000610ec8826113d5565b610ed281856113f1565b9350610ee2818560208601611512565b80840191505092915050565b610ef7816114ee565b82525050565b6000610f0a6002836113fc565b91507f53410000000000000000000000000000000000000000000000000000000000006000830152602082019050919050565b6000610f4a6002836113fc565b91507f53540000000000000000000000000000000000000000000000000000000000006000830152602082019050919050565b6000610f8a6003836113fc565b91507f53544600000000000000000000000000000000000000000000000000000000006000830152602082019050919050565b61010082016000820151610fd46000850182610e4f565b506020820151610fe76020850182610e4f565b506040820151610ffa6040850182611186565b50606082015161100d6060850182610e4f565b50608082015161102060808501826111bb565b5060a082015161103360a08501826111bb565b5060c082015161104660c08501826111bb565b5060e082015161105960e0850182611177565b50505050565b600060a083016000830151848203600086015261107c8282610e84565b91505060208301516110916020860182610e4f565b5060408301516110a460408601826111bb565b5060608301516110b760608601826111bb565b5060808301516110ca60808601826111bb565b508091505092915050565b610100820160008201516110ec6000850182610e4f565b5060208201516110ff6020850182610e4f565b5060408201516111126040850182611186565b5060608201516111256060850182610e4f565b50608082015161113860808501826111bb565b5060a082015161114b60a08501826111bb565b5060c082015161115e60c08501826111bb565b5060e082015161117160e0850182611177565b50505050565b611180816114b5565b82525050565b61118f816114d5565b82525050565b61119e816114d5565b82525050565b6111b56111b0826114d5565b611569565b82525050565b6111c4816114e4565b82525050565b6111d3816114e4565b82525050565b60006111e58288610e6d565b6014820191506111f582876111a4565b6003820191506112058286610e6d565b60148201915061121582856111a4565b6003820191506112258284610e6d565b6014820191508190509695505050505050565b60006112448284610ebd565b915081905092915050565b60006020820190506112646000830184610e5e565b92915050565b600060608201905061127f6000830186610e5e565b61128c6020830185610e5e565b61129960408301846111ca565b949350505050565b60006040820190506112b66000830185610e5e565b6112c360208301846111ca565b9392505050565b60006020820190506112df6000830184610eee565b92915050565b600060208201905081810360008301526112fe81610efd565b9050919050565b6000602082019050818103600083015261131e81610f3d565b9050919050565b6000602082019050818103600083015261133e81610f7d565b9050919050565b60006101008201905061135b6000830184610fbd565b92915050565b6000602082019050818103600083015261137b818461105f565b905092915050565b60006101008201905061139960008301846110d5565b92915050565b60006020820190506113b46000830184611195565b92915050565b60006020820190506113cf60008301846111ca565b92915050565b600081519050919050565b600082825260208201905092915050565b600081905092915050565b600082825260208201905092915050565b6000611418826114e4565b9150611423836114e4565b9250827fffffffffffffffffffffffffffffffffffffffffffffffffffffffffffffffff038211156114585761145761157b565b5b828201905092915050565b600061146e826114e4565b9150611479836114e4565b92508282101561148c5761148b61157b565b5b828203905092915050565b60006114a2826114b5565b9050919050565b60008115159050919050565b600073ffffffffffffffffffffffffffffffffffffffff82169050919050565b600062ffffff82169050919050565b6000819050919050565b60006114f982611500565b9050919050565b600061150b826114b5565b9050919050565b60005b83811015611530578082015181840152602081019050611515565b8381111561153f576000848401525b50505050565b600061155082611557565b9050919050565b6000611562826115c8565b9050919050565b6000611574826115bb565b9050919050565b7f4e487b7100000000000000000000000000000000000000000000000000000000600052601160045260246000fd5b6000601f19601f8301169050919050565b60008160e81b9050919050565b60008160601b9050919050565b6115de816114a9565b81146115e957600080fd5b50565b6115f5816114e4565b811461160057600080fd5b5056fea264697066735822122039f9d952d7c8c17c7e7001a716174322a7c4932d73dd5e15e05617f3cd63ee4c64736f6c63430008000033",
  "linkReferences": {},
  "deployedLinkReferences": {}
}